{
  "contractName": "EIP712",
  "abi": [
    {
      "inputs": [],
      "name": "EIP712_DOMAIN_TYPEHASH",
      "outputs": [
        {
          "internalType": "bytes32",
          "name": "",
          "type": "bytes32"
        }
      ],
      "stateMutability": "view",
      "type": "function"
    }
  ],
  "bytecode": "0x60b1610024600b82828239805160001a607314601757fe5b30600052607381538281f3fe730000000000000000000000000000000000000000301460806040526004361060335760003560e01c8063c7977be7146038575b600080fd5b603e6054565b6040518082815260200191505060405180910390f35b7f8b73c3c69bb8fe3d512ecc4cf759cc79239f7b179b0ffacaa9a75d522b39400f60001b8156fea264697066735822122096708c7cae8d2652ef6963f6f8ab502c392d73ba5af12eca2ca0c6ebfdf1088064736f6c634300060c0033",
  "immutableReferences": {},
  "source": "/**\r\n * SPDX-License-Identifier: MIT\r\n *\r\n * Copyright (c) 2020 CENTRE SECZ\r\n *\r\n * Permission is hereby granted, free of charge, to any person obtaining a copy\r\n * of this software and associated documentation files (the \"Software\"), to deal\r\n * in the Software without restriction, including without limitation the rights\r\n * to use, copy, modify, merge, publish, distribute, sublicense, and/or sell\r\n * copies of the Software, and to permit persons to whom the Software is\r\n * furnished to do so, subject to the following conditions:\r\n *\r\n * The above copyright notice and this permission notice shall be included in\r\n * copies or substantial portions of the Software.\r\n *\r\n * THE SOFTWARE IS PROVIDED \"AS IS\", WITHOUT WARRANTY OF ANY KIND, EXPRESS OR\r\n * IMPLIED, INCLUDING BUT NOT LIMITED TO THE WARRANTIES OF MERCHANTABILITY,\r\n * FITNESS FOR A PARTICULAR PURPOSE AND NONINFRINGEMENT. IN NO EVENT SHALL THE\r\n * AUTHORS OR COPYRIGHT HOLDERS BE LIABLE FOR ANY CLAIM, DAMAGES OR OTHER\r\n * LIABILITY, WHETHER IN AN ACTION OF CONTRACT, TORT OR OTHERWISE, ARISING FROM,\r\n * OUT OF OR IN CONNECTION WITH THE SOFTWARE OR THE USE OR OTHER DEALINGS IN THE\r\n * SOFTWARE.\r\n */\r\n\r\npragma solidity 0.6.12;\r\n\r\nimport {ECRecover} from \"./ECRecover.sol\";\r\n\r\n/**\r\n * @title EIP712\r\n * @notice A library that provides EIP712 helper functions\r\n */\r\nlibrary EIP712 {\r\n    // keccak256(\"EIP712Domain(string name,string version,address verifyingContract,uint256 chainId)\")\r\n    bytes32\r\n        public constant EIP712_DOMAIN_TYPEHASH = 0x8b73c3c69bb8fe3d512ecc4cf759cc79239f7b179b0ffacaa9a75d522b39400f;\r\n\r\n    /**\r\n     * @notice Make EIP712 domain separator\r\n     * @param name      Contract name\r\n     * @param version   Contract version\r\n     * @return Domain separator\r\n     */\r\n    function makeDomainSeparator(string memory name, string memory version)\r\n        internal\r\n        view\r\n        returns (bytes32)\r\n    {\r\n        uint256 chainId;\r\n        assembly {\r\n            chainId := chainid()\r\n        }\r\n\r\n        return\r\n            keccak256(\r\n                abi.encode(\r\n                    EIP712_DOMAIN_TYPEHASH,\r\n                    keccak256(bytes(name)),\r\n                    keccak256(bytes(version)),\r\n                    bytes32(chainId),\r\n                    address(this)\r\n                )\r\n            );\r\n    }\r\n\r\n    /**\r\n     * @notice Recover signer's address from a EIP712 signature\r\n     * @param domainSeparator   Domain separator\r\n     * @param v                 v of the signature\r\n     * @param r                 r of the signature\r\n     * @param s                 s of the signature\r\n     * @param typeHashAndData   Type hash concatenated with data\r\n     * @return Signer's address\r\n     */\r\n    function recover(\r\n        bytes32 domainSeparator,\r\n        uint8 v,\r\n        bytes32 r,\r\n        bytes32 s,\r\n        bytes memory typeHashAndData\r\n    ) internal pure returns (address) {\r\n        bytes32 digest = keccak256(\r\n            abi.encodePacked(\r\n                \"\\x19\\x01\",\r\n                domainSeparator,\r\n                keccak256(typeHashAndData)\r\n            )\r\n        );\r\n        return ECRecover.recover(digest, v, r, s);\r\n    }\r\n}\r\n",
  "sourcePath": "/home/developer/meme-of-the-day-fees/src/contracts/src/EIP712.sol",
  "compiler": {
    "name": "solc",
    "version": "0.6.12+commit.27d51765.Emscripten.clang"
  },
  "schemaVersion": "3.3.1",
  "updatedAt": "2021-01-04T14:19:40.368Z",
  "devdoc": {
    "kind": "dev",
    "methods": {},
    "title": "EIP712",
    "version": 1
  },
  "userdoc": {
    "kind": "user",
    "methods": {},
    "notice": "A library that provides EIP712 helper functions",
    "version": 1
  }
}